{
  "_format": "hh-sol-artifact-1",
  "contractName": "Auction",
  "sourceName": "contracts/Auction.sol",
  "abi": [
    {
      "inputs": [],
      "stateMutability": "nonpayable",
      "type": "constructor"
    },
    {
      "inputs": [],
      "name": "auctionState",
      "outputs": [
        {
          "internalType": "enum Auction.Auc_State",
          "name": "",
          "type": "uint8"
        }
      ],
      "stateMutability": "view",
      "type": "function"
    },
    {
      "inputs": [],
      "name": "auctioneer",
      "outputs": [
        {
          "internalType": "address payable",
          "name": "",
          "type": "address"
        }
      ],
      "stateMutability": "view",
      "type": "function"
    },
    {
      "inputs": [],
      "name": "bid",
      "outputs": [],
      "stateMutability": "payable",
      "type": "function"
    },
    {
      "inputs": [],
      "name": "bidInc",
      "outputs": [
        {
          "internalType": "uint256",
          "name": "",
          "type": "uint256"
        }
      ],
      "stateMutability": "view",
      "type": "function"
    },
    {
      "inputs": [
        {
          "internalType": "address",
          "name": "",
          "type": "address"
        }
      ],
      "name": "bids",
      "outputs": [
        {
          "internalType": "uint256",
          "name": "",
          "type": "uint256"
        }
      ],
      "stateMutability": "view",
      "type": "function"
    },
    {
      "inputs": [],
      "name": "cancelAuc",
      "outputs": [],
      "stateMutability": "nonpayable",
      "type": "function"
    },
    {
      "inputs": [],
      "name": "endAuc",
      "outputs": [],
      "stateMutability": "nonpayable",
      "type": "function"
    },
    {
      "inputs": [],
      "name": "etblock",
      "outputs": [
        {
          "internalType": "uint256",
          "name": "",
          "type": "uint256"
        }
      ],
      "stateMutability": "view",
      "type": "function"
    },
    {
      "inputs": [],
      "name": "finalizeAuc",
      "outputs": [],
      "stateMutability": "nonpayable",
      "type": "function"
    },
    {
      "inputs": [],
      "name": "highestBidder",
      "outputs": [
        {
          "internalType": "address payable",
          "name": "",
          "type": "address"
        }
      ],
      "stateMutability": "view",
      "type": "function"
    },
    {
      "inputs": [],
      "name": "highestPayableBid",
      "outputs": [
        {
          "internalType": "uint256",
          "name": "",
          "type": "uint256"
        }
      ],
      "stateMutability": "view",
      "type": "function"
    },
    {
      "inputs": [],
      "name": "stblock",
      "outputs": [
        {
          "internalType": "uint256",
          "name": "",
          "type": "uint256"
        }
      ],
      "stateMutability": "view",
      "type": "function"
    }
  ],
  "bytecode": "0x608060405234801561001057600080fd5b50336000806101000a81548173ffffffffffffffffffffffffffffffffffffffff021916908373ffffffffffffffffffffffffffffffffffffffff1602179055506001600360006101000a81548160ff0219169083600381111561009d577f4e487b7100000000000000000000000000000000000000000000000000000000600052602160045260246000fd5b02179055504360018190555060f06001546100b891906100d2565b600281905550670de0b6b3a7640000600581905550610161565b60006100dd82610128565b91506100e883610128565b9250827fffffffffffffffffffffffffffffffffffffffffffffffffffffffffffffffff0382111561011d5761011c610132565b5b828201905092915050565b6000819050919050565b7f4e487b7100000000000000000000000000000000000000000000000000000000600052601160045260246000fd5b611040806101706000396000f3fe6080604052600436106100a75760003560e01c806362ea82db1161006457806362ea82db146101655780637fb45099146101a257806391f90157146101cd5780639d957d45146101f8578063a118be0214610223578063e07600bd1461024e576100a7565b806315b24677146100ac5780631998aeef146100d75780632352f320146100e15780633fdceefd146100f85780634f5150ca1461010f5780635ec2c7bf1461013a575b600080fd5b3480156100b857600080fd5b506100c1610265565b6040516100ce9190610e2f565b60405180910390f35b6100df61026b565b005b3480156100ed57600080fd5b506100f6610607565b005b34801561010457600080fd5b5061010d6106e7565b005b34801561011b57600080fd5b506101246107c8565b6040516101319190610e2f565b60405180910390f35b34801561014657600080fd5b5061014f6107ce565b60405161015c9190610dd9565b60405180910390f35b34801561017157600080fd5b5061018c60048036038101906101879190610d60565b6107f2565b6040516101999190610e2f565b60405180910390f35b3480156101ae57600080fd5b506101b761080a565b6040516101c49190610df4565b60405180910390f35b3480156101d957600080fd5b506101e261081d565b6040516101ef9190610dd9565b60405180910390f35b34801561020457600080fd5b5061020d610843565b60405161021a9190610e2f565b60405180910390f35b34801561022f57600080fd5b50610238610849565b6040516102459190610e2f565b60405180910390f35b34801561025a57600080fd5b5061026361084f565b005b60055481565b60008054906101000a900473ffffffffffffffffffffffffffffffffffffffff1673ffffffffffffffffffffffffffffffffffffffff163373ffffffffffffffffffffffffffffffffffffffff1614156102fa576040517f08c379a00000000000000000000000000000000000000000000000000000000081526004016102f190610e0f565b60405180910390fd5b600154431161030857600080fd5b600254431061031657600080fd5b60016003811115610350577f4e487b7100000000000000000000000000000000000000000000000000000000600052602160045260246000fd5b600360009054906101000a900460ff166003811115610398577f4e487b7100000000000000000000000000000000000000000000000000000000600052602160045260246000fd5b146103a257600080fd5b670de0b6b3a76400003410156103b757600080fd5b600034600760003373ffffffffffffffffffffffffffffffffffffffff1673ffffffffffffffffffffffffffffffffffffffff168152602001908152602001600020546104049190610e5b565b9050600454811161041457600080fd5b80600760003373ffffffffffffffffffffffffffffffffffffffff1673ffffffffffffffffffffffffffffffffffffffff1681526020019081526020016000208190555060076000600660009054906101000a900473ffffffffffffffffffffffffffffffffffffffff1673ffffffffffffffffffffffffffffffffffffffff1673ffffffffffffffffffffffffffffffffffffffff1681526020019081526020016000205481101561054457610539600554826104d29190610e5b565b60076000600660009054906101000a900473ffffffffffffffffffffffffffffffffffffffff1673ffffffffffffffffffffffffffffffffffffffff1673ffffffffffffffffffffffffffffffffffffffff16815260200190815260200160002054610d30565b600481905550610604565b6105bc8160055460076000600660009054906101000a900473ffffffffffffffffffffffffffffffffffffffff1673ffffffffffffffffffffffffffffffffffffffff1673ffffffffffffffffffffffffffffffffffffffff168152602001908152602001600020546105b79190610e5b565b610d30565b60048190555033600660006101000a81548173ffffffffffffffffffffffffffffffffffffffff021916908373ffffffffffffffffffffffffffffffffffffffff1602179055505b50565b60008054906101000a900473ffffffffffffffffffffffffffffffffffffffff1673ffffffffffffffffffffffffffffffffffffffff163373ffffffffffffffffffffffffffffffffffffffff1614610695576040517f08c379a000000000000000000000000000000000000000000000000000000000815260040161068c90610e0f565b60405180910390fd5b60038060006101000a81548160ff021916908360038111156106e0577f4e487b7100000000000000000000000000000000000000000000000000000000600052602160045260246000fd5b0217905550565b60008054906101000a900473ffffffffffffffffffffffffffffffffffffffff1673ffffffffffffffffffffffffffffffffffffffff163373ffffffffffffffffffffffffffffffffffffffff1614610775576040517f08c379a000000000000000000000000000000000000000000000000000000000815260040161076c90610e0f565b60405180910390fd5b6002600360006101000a81548160ff021916908360038111156107c1577f4e487b7100000000000000000000000000000000000000000000000000000000600052602160045260246000fd5b0217905550565b60045481565b60008054906101000a900473ffffffffffffffffffffffffffffffffffffffff1681565b60076020528060005260406000206000915090505481565b600360009054906101000a900460ff1681565b600660009054906101000a900473ffffffffffffffffffffffffffffffffffffffff1681565b60025481565b60015481565b600380811115610888577f4e487b7100000000000000000000000000000000000000000000000000000000600052602160045260246000fd5b600360009054906101000a900460ff1660038111156108d0577f4e487b7100000000000000000000000000000000000000000000000000000000600052602160045260246000fd5b148061095b575060026003811115610911577f4e487b7100000000000000000000000000000000000000000000000000000000600052602160045260246000fd5b600360009054906101000a900460ff166003811115610959577f4e487b7100000000000000000000000000000000000000000000000000000000600052602160045260246000fd5b145b80610967575060025443115b61097057600080fd5b60008054906101000a900473ffffffffffffffffffffffffffffffffffffffff1673ffffffffffffffffffffffffffffffffffffffff163373ffffffffffffffffffffffffffffffffffffffff161480610a0957506000600760003373ffffffffffffffffffffffffffffffffffffffff1673ffffffffffffffffffffffffffffffffffffffff16815260200190815260200160002054115b610a1257600080fd5b600080600380811115610a4e577f4e487b7100000000000000000000000000000000000000000000000000000000600052602160045260246000fd5b600360009054906101000a900460ff166003811115610a96577f4e487b7100000000000000000000000000000000000000000000000000000000600052602160045260246000fd5b1415610ae657339150600760003373ffffffffffffffffffffffffffffffffffffffff1673ffffffffffffffffffffffffffffffffffffffff168152602001908152602001600020549050610ca0565b60008054906101000a900473ffffffffffffffffffffffffffffffffffffffff1673ffffffffffffffffffffffffffffffffffffffff163373ffffffffffffffffffffffffffffffffffffffff161415610b675760008054906101000a900473ffffffffffffffffffffffffffffffffffffffff1691506004549050610c9f565b600660009054906101000a900473ffffffffffffffffffffffffffffffffffffffff1673ffffffffffffffffffffffffffffffffffffffff163373ffffffffffffffffffffffffffffffffffffffff161415610c5857600660009054906101000a900473ffffffffffffffffffffffffffffffffffffffff16915060045460076000600660009054906101000a900473ffffffffffffffffffffffffffffffffffffffff1673ffffffffffffffffffffffffffffffffffffffff1673ffffffffffffffffffffffffffffffffffffffff16815260200190815260200160002054610c519190610eb1565b9050610c9e565b339150600760003373ffffffffffffffffffffffffffffffffffffffff1673ffffffffffffffffffffffffffffffffffffffff1681526020019081526020016000205490505b5b5b6000600760003373ffffffffffffffffffffffffffffffffffffffff1673ffffffffffffffffffffffffffffffffffffffff168152602001908152602001600020819055508173ffffffffffffffffffffffffffffffffffffffff166108fc829081150290604051600060405180830381858888f19350505050158015610d2b573d6000803e3d6000fd5b505050565b6000818311610d4157829050610d45565b8190505b92915050565b600081359050610d5a81610ff3565b92915050565b600060208284031215610d7257600080fd5b6000610d8084828501610d4b565b91505092915050565b610d9281610ef7565b82525050565b610da181610f46565b82525050565b6000610db4601083610e4a565b9150610dbf82610fb6565b602082019050919050565b610dd381610f3c565b82525050565b6000602082019050610dee6000830184610d89565b92915050565b6000602082019050610e096000830184610d98565b92915050565b60006020820190508181036000830152610e2881610da7565b9050919050565b6000602082019050610e446000830184610dca565b92915050565b600082825260208201905092915050565b6000610e6682610f3c565b9150610e7183610f3c565b9250827fffffffffffffffffffffffffffffffffffffffffffffffffffffffffffffffff03821115610ea657610ea5610f58565b5b828201905092915050565b6000610ebc82610f3c565b9150610ec783610f3c565b925082821015610eda57610ed9610f58565b5b828203905092915050565b6000610ef082610f1c565b9050919050565b6000610f0282610f1c565b9050919050565b6000819050610f1782610fdf565b919050565b600073ffffffffffffffffffffffffffffffffffffffff82169050919050565b6000819050919050565b6000610f5182610f09565b9050919050565b7f4e487b7100000000000000000000000000000000000000000000000000000000600052601160045260246000fd5b7f4e487b7100000000000000000000000000000000000000000000000000000000600052602160045260246000fd5b7f4f776e65722063616e6e6f742062696400000000000000000000000000000000600082015250565b60048110610ff057610fef610f87565b5b50565b610ffc81610ee5565b811461100757600080fd5b5056fea264697066735822122068a08c79fed4efb31ea2296b650639e689add06e284e9ee1472589d879fa3aa364736f6c63430008040033",
  "linkReferences": {},
  "deployedLinkReferences": {}
}